{"abi":[{"type":"constructor","inputs":[{"name":"initialOwner","type":"address","internalType":"address"}],"stateMutability":"nonpayable"},{"type":"function","name":"approve","inputs":[{"name":"to","type":"address","internalType":"address"},{"name":"tokenId","type":"uint256","internalType":"uint256"}],"outputs":[],"stateMutability":"nonpayable"},{"type":"function","name":"balanceOf","inputs":[{"name":"owner","type":"address","internalType":"address"}],"outputs":[{"name":"","type":"uint256","internalType":"uint256"}],"stateMutability":"view"},{"type":"function","name":"getApproved","inputs":[{"name":"tokenId","type":"uint256","internalType":"uint256"}],"outputs":[{"name":"","type":"address","internalType":"address"}],"stateMutability":"view"},{"type":"function","name":"isApprovedForAll","inputs":[{"name":"owner","type":"address","internalType":"address"},{"name":"operator","type":"address","internalType":"address"}],"outputs":[{"name":"","type":"bool","internalType":"bool"}],"stateMutability":"view"},{"type":"function","name":"name","inputs":[],"outputs":[{"name":"","type":"string","internalType":"string"}],"stateMutability":"view"},{"type":"function","name":"owner","inputs":[],"outputs":[{"name":"","type":"address","internalType":"address"}],"stateMutability":"view"},{"type":"function","name":"ownerOf","inputs":[{"name":"tokenId","type":"uint256","internalType":"uint256"}],"outputs":[{"name":"","type":"address","internalType":"address"}],"stateMutability":"view"},{"type":"function","name":"renounceOwnership","inputs":[],"outputs":[],"stateMutability":"nonpayable"},{"type":"function","name":"safeMint","inputs":[{"name":"to","type":"address","internalType":"address"},{"name":"tokenId","type":"uint256","internalType":"uint256"}],"outputs":[],"stateMutability":"nonpayable"},{"type":"function","name":"safeTransferFrom","inputs":[{"name":"from","type":"address","internalType":"address"},{"name":"to","type":"address","internalType":"address"},{"name":"tokenId","type":"uint256","internalType":"uint256"}],"outputs":[],"stateMutability":"nonpayable"},{"type":"function","name":"safeTransferFrom","inputs":[{"name":"from","type":"address","internalType":"address"},{"name":"to","type":"address","internalType":"address"},{"name":"tokenId","type":"uint256","internalType":"uint256"},{"name":"data","type":"bytes","internalType":"bytes"}],"outputs":[],"stateMutability":"nonpayable"},{"type":"function","name":"setApprovalForAll","inputs":[{"name":"operator","type":"address","internalType":"address"},{"name":"approved","type":"bool","internalType":"bool"}],"outputs":[],"stateMutability":"nonpayable"},{"type":"function","name":"supportsInterface","inputs":[{"name":"interfaceId","type":"bytes4","internalType":"bytes4"}],"outputs":[{"name":"","type":"bool","internalType":"bool"}],"stateMutability":"view"},{"type":"function","name":"symbol","inputs":[],"outputs":[{"name":"","type":"string","internalType":"string"}],"stateMutability":"view"},{"type":"function","name":"tokenURI","inputs":[{"name":"tokenId","type":"uint256","internalType":"uint256"}],"outputs":[{"name":"","type":"string","internalType":"string"}],"stateMutability":"view"},{"type":"function","name":"transferFrom","inputs":[{"name":"from","type":"address","internalType":"address"},{"name":"to","type":"address","internalType":"address"},{"name":"tokenId","type":"uint256","internalType":"uint256"}],"outputs":[],"stateMutability":"nonpayable"},{"type":"function","name":"transferOwnership","inputs":[{"name":"newOwner","type":"address","internalType":"address"}],"outputs":[],"stateMutability":"nonpayable"},{"type":"event","name":"Approval","inputs":[{"name":"owner","type":"address","indexed":true,"internalType":"address"},{"name":"approved","type":"address","indexed":true,"internalType":"address"},{"name":"tokenId","type":"uint256","indexed":true,"internalType":"uint256"}],"anonymous":false},{"type":"event","name":"ApprovalForAll","inputs":[{"name":"owner","type":"address","indexed":true,"internalType":"address"},{"name":"operator","type":"address","indexed":true,"internalType":"address"},{"name":"approved","type":"bool","indexed":false,"internalType":"bool"}],"anonymous":false},{"type":"event","name":"OwnershipTransferred","inputs":[{"name":"previousOwner","type":"address","indexed":true,"internalType":"address"},{"name":"newOwner","type":"address","indexed":true,"internalType":"address"}],"anonymous":false},{"type":"event","name":"Transfer","inputs":[{"name":"from","type":"address","indexed":true,"internalType":"address"},{"name":"to","type":"address","indexed":true,"internalType":"address"},{"name":"tokenId","type":"uint256","indexed":true,"internalType":"uint256"}],"anonymous":false},{"type":"error","name":"ERC721IncorrectOwner","inputs":[{"name":"sender","type":"address","internalType":"address"},{"name":"tokenId","type":"uint256","internalType":"uint256"},{"name":"owner","type":"address","internalType":"address"}]},{"type":"error","name":"ERC721InsufficientApproval","inputs":[{"name":"operator","type":"address","internalType":"address"},{"name":"tokenId","type":"uint256","internalType":"uint256"}]},{"type":"error","name":"ERC721InvalidApprover","inputs":[{"name":"approver","type":"address","internalType":"address"}]},{"type":"error","name":"ERC721InvalidOperator","inputs":[{"name":"operator","type":"address","internalType":"address"}]},{"type":"error","name":"ERC721InvalidOwner","inputs":[{"name":"owner","type":"address","internalType":"address"}]},{"type":"error","name":"ERC721InvalidReceiver","inputs":[{"name":"receiver","type":"address","internalType":"address"}]},{"type":"error","name":"ERC721InvalidSender","inputs":[{"name":"sender","type":"address","internalType":"address"}]},{"type":"error","name":"ERC721NonexistentToken","inputs":[{"name":"tokenId","type":"uint256","internalType":"uint256"}]},{"type":"error","name":"OwnableInvalidOwner","inputs":[{"name":"owner","type":"address","internalType":"address"}]},{"type":"error","name":"OwnableUnauthorizedAccount","inputs":[{"name":"account","type":"address","internalType":"address"}]}],"bytecode":{"object":"0x60806040523480156200001157600080fd5b50604051620013b4380380620013b4833981016040819052620000349162000131565b806040518060400160405280601081526020016f11195b9d995c905d58dd1a5bdb93919560821b8152506040518060400160405280600381526020016213919560ea1b81525081600090816200008b91906200020a565b5060016200009a82826200020a565b5050506001600160a01b038116620000cc57604051631e4fbdf760e01b81526000600482015260240160405180910390fd5b620000d781620000df565b5050620002d6565b600680546001600160a01b038381166001600160a01b0319831681179093556040519116919082907f8be0079c531659141344cd1fd0a4f28419497f9722a3daafe3b4186f6b6457e090600090a35050565b6000602082840312156200014457600080fd5b81516001600160a01b03811681146200015c57600080fd5b9392505050565b634e487b7160e01b600052604160045260246000fd5b600181811c908216806200018e57607f821691505b602082108103620001af57634e487b7160e01b600052602260045260246000fd5b50919050565b601f82111562000205576000816000526020600020601f850160051c81016020861015620001e05750805b601f850160051c820191505b818110156200020157828155600101620001ec565b5050505b505050565b81516001600160401b0381111562000226576200022662000163565b6200023e8162000237845462000179565b84620001b5565b602080601f8311600181146200027657600084156200025d5750858301515b600019600386901b1c1916600185901b17855562000201565b600085815260208120601f198616915b82811015620002a75788860151825594840194600190910190840162000286565b5085821015620002c65787850151600019600388901b60f8161c191681555b5050505050600190811b01905550565b6110ce80620002e66000396000f3fe608060405234801561001057600080fd5b506004361061010b5760003560e01c8063715018a6116100a2578063a22cb46511610071578063a22cb4651461021b578063b88d4fde1461022e578063c87b56dd14610241578063e985e9c514610254578063f2fde38b1461026757600080fd5b8063715018a6146101e75780638da5cb5b146101ef57806395d89b4114610200578063a14481941461020857600080fd5b806323b872dd116100de57806323b872dd1461018d57806342842e0e146101a05780636352211e146101b357806370a08231146101c657600080fd5b806301ffc9a71461011057806306fdde0314610138578063081812fc1461014d578063095ea7b314610178575b600080fd5b61012361011e366004610d3e565b61027a565b60405190151581526020015b60405180910390f35b6101406102cc565b60405161012f9190610dab565b61016061015b366004610dbe565b61035e565b6040516001600160a01b03909116815260200161012f565b61018b610186366004610df3565b610387565b005b61018b61019b366004610e1d565b610396565b61018b6101ae366004610e1d565b610426565b6101606101c1366004610dbe565b610446565b6101d96101d4366004610e59565b610451565b60405190815260200161012f565b61018b610499565b6006546001600160a01b0316610160565b6101406104ad565b61018b610216366004610df3565b6104bc565b61018b610229366004610e74565b6104ce565b61018b61023c366004610ec6565b6104d9565b61014061024f366004610dbe565b6104f0565b610123610262366004610fa2565b610565565b61018b610275366004610e59565b610593565b60006001600160e01b031982166380ac58cd60e01b14806102ab57506001600160e01b03198216635b5e139f60e01b145b806102c657506301ffc9a760e01b6001600160e01b03198316145b92915050565b6060600080546102db90610fd5565b80601f016020809104026020016040519081016040528092919081815260200182805461030790610fd5565b80156103545780601f1061032957610100808354040283529160200191610354565b820191906000526020600020905b81548152906001019060200180831161033757829003601f168201915b5050505050905090565b6000610369826105d1565b506000828152600460205260409020546001600160a01b03166102c6565b61039282823361060a565b5050565b6001600160a01b0382166103c557604051633250574960e11b8152600060048201526024015b60405180910390fd5b60006103d2838333610617565b9050836001600160a01b0316816001600160a01b031614610420576040516364283d7b60e01b81526001600160a01b03808616600483015260248201849052821660448201526064016103bc565b50505050565b610441838383604051806020016040528060008152506104d9565b505050565b60006102c6826105d1565b60006001600160a01b03821661047d576040516322718ad960e21b8152600060048201526024016103bc565b506001600160a01b031660009081526003602052604090205490565b6104a1610710565b6104ab600061073d565b565b6060600180546102db90610fd5565b6104c4610710565b610392828261078f565b6103923383836107a9565b6104e4848484610396565b61042084848484610848565b60606104fb826105d1565b50600061051360408051602081019091526000815290565b90506000815111610533576040518060200160405280600081525061055e565b8061053d84610971565b60405160200161054e92919061100f565b6040516020818303038152906040525b9392505050565b6001600160a01b03918216600090815260056020908152604080832093909416825291909152205460ff1690565b61059b610710565b6001600160a01b0381166105c557604051631e4fbdf760e01b8152600060048201526024016103bc565b6105ce8161073d565b50565b6000818152600260205260408120546001600160a01b0316806102c657604051637e27328960e01b8152600481018490526024016103bc565b6104418383836001610a04565b6000828152600260205260408120546001600160a01b039081169083161561064457610644818486610b0a565b6001600160a01b0381161561068257610661600085600080610a04565b6001600160a01b038116600090815260036020526040902080546000190190555b6001600160a01b038516156106b1576001600160a01b0385166000908152600360205260409020805460010190555b60008481526002602052604080822080546001600160a01b0319166001600160a01b0389811691821790925591518793918516917fddf252ad1be2c89b69c2b068fc378daa952ba7f163c4a11628f55a4df523b3ef91a4949350505050565b6006546001600160a01b031633146104ab5760405163118cdaa760e01b81523360048201526024016103bc565b600680546001600160a01b038381166001600160a01b0319831681179093556040519116919082907f8be0079c531659141344cd1fd0a4f28419497f9722a3daafe3b4186f6b6457e090600090a35050565b610392828260405180602001604052806000815250610b6e565b6001600160a01b0382166107db57604051630b61174360e31b81526001600160a01b03831660048201526024016103bc565b6001600160a01b03838116600081815260056020908152604080832094871680845294825291829020805460ff191686151590811790915591519182527f17307eab39ab6107e8899845ad3d59bd9653f200f220920489ca2b5937696c31910160405180910390a3505050565b6001600160a01b0383163b1561042057604051630a85bd0160e11b81526001600160a01b0384169063150b7a029061088a90339088908790879060040161103e565b6020604051808303816000875af19250505080156108c5575060408051601f3d908101601f191682019092526108c29181019061107b565b60015b61092e573d8080156108f3576040519150601f19603f3d011682016040523d82523d6000602084013e6108f8565b606091505b50805160000361092657604051633250574960e11b81526001600160a01b03851660048201526024016103bc565b805181602001fd5b6001600160e01b03198116630a85bd0160e11b1461096a57604051633250574960e11b81526001600160a01b03851660048201526024016103bc565b5050505050565b6060600061097e83610b85565b600101905060008167ffffffffffffffff81111561099e5761099e610eb0565b6040519080825280601f01601f1916602001820160405280156109c8576020820181803683370190505b5090508181016020015b600019016f181899199a1a9b1b9c1cb0b131b232b360811b600a86061a8153600a85049450846109d257509392505050565b8080610a1857506001600160a01b03821615155b15610ada576000610a28846105d1565b90506001600160a01b03831615801590610a545750826001600160a01b0316816001600160a01b031614155b8015610a675750610a658184610565565b155b15610a905760405163a9fbf51f60e01b81526001600160a01b03841660048201526024016103bc565b8115610ad85783856001600160a01b0316826001600160a01b03167f8c5be1e5ebec7d5bd14f71427d1e84f3dd0314c0f7b2291e5b200ac8c7c3b92560405160405180910390a45b505b5050600090815260046020526040902080546001600160a01b0319166001600160a01b0392909216919091179055565b610b15838383610c5d565b610441576001600160a01b038316610b4357604051637e27328960e01b8152600481018290526024016103bc565b60405163177e802f60e01b81526001600160a01b0383166004820152602481018290526044016103bc565b610b788383610cc3565b6104416000848484610848565b60008072184f03e93ff9f4daa797ed6e38ed64bf6a1f0160401b8310610bc45772184f03e93ff9f4daa797ed6e38ed64bf6a1f0160401b830492506040015b6d04ee2d6d415b85acef81000000008310610bf0576d04ee2d6d415b85acef8100000000830492506020015b662386f26fc100008310610c0e57662386f26fc10000830492506010015b6305f5e1008310610c26576305f5e100830492506008015b6127108310610c3a57612710830492506004015b60648310610c4c576064830492506002015b600a83106102c65760010192915050565b60006001600160a01b03831615801590610cbb5750826001600160a01b0316846001600160a01b03161480610c975750610c978484610565565b80610cbb57506000828152600460205260409020546001600160a01b038481169116145b949350505050565b6001600160a01b038216610ced57604051633250574960e11b8152600060048201526024016103bc565b6000610cfb83836000610617565b90506001600160a01b03811615610441576040516339e3563760e11b8152600060048201526024016103bc565b6001600160e01b0319811681146105ce57600080fd5b600060208284031215610d5057600080fd5b813561055e81610d28565b60005b83811015610d76578181015183820152602001610d5e565b50506000910152565b60008151808452610d97816020860160208601610d5b565b601f01601f19169290920160200192915050565b60208152600061055e6020830184610d7f565b600060208284031215610dd057600080fd5b5035919050565b80356001600160a01b0381168114610dee57600080fd5b919050565b60008060408385031215610e0657600080fd5b610e0f83610dd7565b946020939093013593505050565b600080600060608486031215610e3257600080fd5b610e3b84610dd7565b9250610e4960208501610dd7565b9150604084013590509250925092565b600060208284031215610e6b57600080fd5b61055e82610dd7565b60008060408385031215610e8757600080fd5b610e9083610dd7565b915060208301358015158114610ea557600080fd5b809150509250929050565b634e487b7160e01b600052604160045260246000fd5b60008060008060808587031215610edc57600080fd5b610ee585610dd7565b9350610ef360208601610dd7565b925060408501359150606085013567ffffffffffffffff80821115610f1757600080fd5b818701915087601f830112610f2b57600080fd5b813581811115610f3d57610f3d610eb0565b604051601f8201601f19908116603f01168101908382118183101715610f6557610f65610eb0565b816040528281528a6020848701011115610f7e57600080fd5b82602086016020830137600060208483010152809550505050505092959194509250565b60008060408385031215610fb557600080fd5b610fbe83610dd7565b9150610fcc60208401610dd7565b90509250929050565b600181811c90821680610fe957607f821691505b60208210810361100957634e487b7160e01b600052602260045260246000fd5b50919050565b60008351611021818460208801610d5b565b835190830190611035818360208801610d5b565b01949350505050565b6001600160a01b038581168252841660208201526040810183905260806060820181905260009061107190830184610d7f565b9695505050505050565b60006020828403121561108d57600080fd5b815161055e81610d2856fea26469706673582212209a693b4873521921653df35b0fc8a89ea2de0498c82ab04c0281a6a95caa392464736f6c63430008180033","linkReferences":{}},"methodIdentifiers":{"approve(address,uint256)":"095ea7b3","balanceOf(address)":"70a08231","getApproved(uint256)":"081812fc","isApprovedForAll(address,address)":"e985e9c5","name()":"06fdde03","owner()":"8da5cb5b","ownerOf(uint256)":"6352211e","renounceOwnership()":"715018a6","safeMint(address,uint256)":"a1448194","safeTransferFrom(address,address,uint256)":"42842e0e","safeTransferFrom(address,address,uint256,bytes)":"b88d4fde","setApprovalForAll(address,bool)":"a22cb465","supportsInterface(bytes4)":"01ffc9a7","symbol()":"95d89b41","tokenURI(uint256)":"c87b56dd","transferFrom(address,address,uint256)":"23b872dd","transferOwnership(address)":"f2fde38b"},"id":34}