{"abi":[{"type":"function","name":"auctionCount","inputs":[],"outputs":[{"name":"","type":"uint256","internalType":"uint256"}],"stateMutability":"view"},{"type":"function","name":"auction_info","inputs":[{"name":"_auctionId","type":"uint256","internalType":"uint256"}],"outputs":[{"name":"","type":"tuple","internalType":"struct EnglishAuction.Auction","components":[{"name":"nft","type":"address","internalType":"contract IERC721"},{"name":"nftId","type":"uint256","internalType":"uint256"},{"name":"seller","type":"address","internalType":"address payable"},{"name":"startingBid","type":"uint256","internalType":"uint256"},{"name":"endAt","type":"uint256","internalType":"uint256"},{"name":"started","type":"bool","internalType":"bool"},{"name":"ended","type":"bool","internalType":"bool"},{"name":"highestBidder","type":"address","internalType":"address"},{"name":"highestBid","type":"uint256","internalType":"uint256"},{"name":"reservePrice","type":"uint256","internalType":"uint256"},{"name":"cancelled","type":"bool","internalType":"bool"}]}],"stateMutability":"view"},{"type":"function","name":"auctions","inputs":[{"name":"","type":"uint256","internalType":"uint256"}],"outputs":[{"name":"nft","type":"address","internalType":"contract IERC721"},{"name":"nftId","type":"uint256","internalType":"uint256"},{"name":"seller","type":"address","internalType":"address payable"},{"name":"startingBid","type":"uint256","internalType":"uint256"},{"name":"endAt","type":"uint256","internalType":"uint256"},{"name":"started","type":"bool","internalType":"bool"},{"name":"ended","type":"bool","internalType":"bool"},{"name":"highestBidder","type":"address","internalType":"address"},{"name":"highestBid","type":"uint256","internalType":"uint256"},{"name":"reservePrice","type":"uint256","internalType":"uint256"},{"name":"cancelled","type":"bool","internalType":"bool"}],"stateMutability":"view"},{"type":"function","name":"bid","inputs":[{"name":"_auctionId","type":"uint256","internalType":"uint256"}],"outputs":[],"stateMutability":"payable"},{"type":"function","name":"bids","inputs":[{"name":"","type":"uint256","internalType":"uint256"},{"name":"","type":"address","internalType":"address"}],"outputs":[{"name":"","type":"uint256","internalType":"uint256"}],"stateMutability":"view"},{"type":"function","name":"cancel","inputs":[{"name":"_auctionId","type":"uint256","internalType":"uint256"}],"outputs":[],"stateMutability":"nonpayable"},{"type":"function","name":"createAndStartAuction","inputs":[{"name":"_nft","type":"address","internalType":"contract IERC721"},{"name":"_nftId","type":"uint256","internalType":"uint256"},{"name":"_startingBid","type":"uint256","internalType":"uint256"},{"name":"_duration","type":"uint256","internalType":"uint256"},{"name":"_reservePrice","type":"uint256","internalType":"uint256"}],"outputs":[],"stateMutability":"nonpayable"},{"type":"function","name":"deposit_balance","inputs":[{"name":"_auctionId","type":"uint256","internalType":"uint256"},{"name":"user","type":"address","internalType":"address"}],"outputs":[{"name":"","type":"uint256","internalType":"uint256"}],"stateMutability":"view"},{"type":"function","name":"end","inputs":[{"name":"_auctionId","type":"uint256","internalType":"uint256"}],"outputs":[],"stateMutability":"nonpayable"},{"type":"function","name":"getAllAuctions","inputs":[],"outputs":[{"name":"","type":"tuple[]","internalType":"struct EnglishAuction.Auction[]","components":[{"name":"nft","type":"address","internalType":"contract IERC721"},{"name":"nftId","type":"uint256","internalType":"uint256"},{"name":"seller","type":"address","internalType":"address payable"},{"name":"startingBid","type":"uint256","internalType":"uint256"},{"name":"endAt","type":"uint256","internalType":"uint256"},{"name":"started","type":"bool","internalType":"bool"},{"name":"ended","type":"bool","internalType":"bool"},{"name":"highestBidder","type":"address","internalType":"address"},{"name":"highestBid","type":"uint256","internalType":"uint256"},{"name":"reservePrice","type":"uint256","internalType":"uint256"},{"name":"cancelled","type":"bool","internalType":"bool"}]}],"stateMutability":"view"},{"type":"function","name":"getAuctionsByOwner","inputs":[{"name":"owner","type":"address","internalType":"address"}],"outputs":[{"name":"","type":"tuple[]","internalType":"struct EnglishAuction.Auction[]","components":[{"name":"nft","type":"address","internalType":"contract IERC721"},{"name":"nftId","type":"uint256","internalType":"uint256"},{"name":"seller","type":"address","internalType":"address payable"},{"name":"startingBid","type":"uint256","internalType":"uint256"},{"name":"endAt","type":"uint256","internalType":"uint256"},{"name":"started","type":"bool","internalType":"bool"},{"name":"ended","type":"bool","internalType":"bool"},{"name":"highestBidder","type":"address","internalType":"address"},{"name":"highestBid","type":"uint256","internalType":"uint256"},{"name":"reservePrice","type":"uint256","internalType":"uint256"},{"name":"cancelled","type":"bool","internalType":"bool"}]}],"stateMutability":"view"},{"type":"function","name":"getNftBuyer","inputs":[{"name":"nftId","type":"uint256","internalType":"uint256"}],"outputs":[{"name":"","type":"address","internalType":"address"}],"stateMutability":"view"},{"type":"function","name":"isAuctionOver","inputs":[{"name":"_auctionId","type":"uint256","internalType":"uint256"}],"outputs":[{"name":"","type":"bool","internalType":"bool"}],"stateMutability":"view"},{"type":"function","name":"ownerToAuctions","inputs":[{"name":"","type":"address","internalType":"address"},{"name":"","type":"uint256","internalType":"uint256"}],"outputs":[{"name":"","type":"uint256","internalType":"uint256"}],"stateMutability":"view"},{"type":"function","name":"total_auctions","inputs":[],"outputs":[{"name":"","type":"uint256","internalType":"uint256"}],"stateMutability":"view"},{"type":"function","name":"withdraw","inputs":[{"name":"_auctionId","type":"uint256","internalType":"uint256"}],"outputs":[],"stateMutability":"nonpayable"},{"type":"event","name":"AuctionCreatedAndStarted","inputs":[{"name":"auctionId","type":"uint256","indexed":true,"internalType":"uint256"},{"name":"seller","type":"address","indexed":true,"internalType":"address"},{"name":"duration","type":"uint256","indexed":false,"internalType":"uint256"},{"name":"reservePrice","type":"uint256","indexed":false,"internalType":"uint256"}],"anonymous":false},{"type":"event","name":"Bid","inputs":[{"name":"auctionId","type":"uint256","indexed":true,"internalType":"uint256"},{"name":"sender","type":"address","indexed":true,"internalType":"address"},{"name":"amount","type":"uint256","indexed":false,"internalType":"uint256"}],"anonymous":false},{"type":"event","name":"Cancel","inputs":[{"name":"auctionId","type":"uint256","indexed":true,"internalType":"uint256"}],"anonymous":false},{"type":"event","name":"End","inputs":[{"name":"auctionId","type":"uint256","indexed":true,"internalType":"uint256"},{"name":"winner","type":"address","indexed":false,"internalType":"address"},{"name":"amount","type":"uint256","indexed":false,"internalType":"uint256"}],"anonymous":false},{"type":"event","name":"Withdraw","inputs":[{"name":"auctionId","type":"uint256","indexed":true,"internalType":"uint256"},{"name":"bidder","type":"address","indexed":true,"internalType":"address"},{"name":"amount","type":"uint256","indexed":false,"internalType":"uint256"}],"anonymous":false}],"bytecode":{"object":"0x608060405234801561001057600080fd5b506117ab806100206000396000f3fe6080604052600436106100f35760003560e01c8063411778551161008a57806370b881661161005957806370b881661461039a57806385e75403146103c7578063cbd2bdfd146103e7578063d691a274146103fc57600080fd5b80634117785514610243578063454a2ab3146102705780634bf0475c14610283578063571a26a0146102a357600080fd5b80632c104a92116100c65780632c104a921461019b5780632e1a7d4d146101cb5780633f1ffcec146101eb57806340e58ee51461022357600080fd5b806308f00e12146100f85780630a09538c1461012b5780630ad24528146101635780632ad7157314610185575b600080fd5b34801561010457600080fd5b506101186101133660046114ef565b610411565b6040519081526020015b60405180910390f35b34801561013757600080fd5b5061014b61014636600461151f565b61043b565b6040516001600160a01b039091168152602001610122565b34801561016f57600080fd5b5061018361017e36600461151f565b61051c565b005b34801561019157600080fd5b5061011860005481565b3480156101a757600080fd5b506101bb6101b636600461151f565b61089a565b6040519015158152602001610122565b3480156101d757600080fd5b506101836101e636600461151f565b61092b565b3480156101f757600080fd5b506101186102063660046114ef565b600260209081526000928352604080842090915290825290205481565b34801561022f57600080fd5b5061018361023e36600461151f565b610a0c565b34801561024f57600080fd5b5061026361025e366004611538565b610c12565b6040516101229190611602565b61018361027e36600461151f565b610dd6565b34801561028f57600080fd5b5061011861029e366004611651565b610fad565b3480156102af57600080fd5b5061032c6102be36600461151f565b60016020819052600091825260409091208054918101546002820154600383015460048401546005850154600686015460078701546008909701546001600160a01b03988916989697958716969495939460ff8085169561010086048216956201000090049092169392168b565b604080516001600160a01b039c8d168152602081019b909b52988b16988a01989098526060890196909652608088019490945291151560a0870152151560c086015290941660e084015261010083019390935261012082019290925290151561014082015261016001610122565b3480156103a657600080fd5b506103ba6103b536600461151f565b610fde565b604051610122919061167d565b3480156103d357600080fd5b506101836103e236600461168c565b611093565b3480156103f357600080fd5b5061026361132e565b34801561040857600080fd5b50600054610118565b60008281526002602090815260408083206001600160a01b03851684529091529020545b92915050565b600060015b60005481116104be5760008181526001602081905260409091200154831480156104805750600081815260016020526040902060050154610100900460ff165b156104ac576000908152600160205260409020600501546201000090046001600160a01b031692915050565b806104b6816116e6565b915050610440565b5060405162461bcd60e51b815260206004820152602760248201527f4e6f20636f6d706c657465642061756374696f6e20666f756e6420666f7220746044820152661a1a5cc813919560ca1b60648201526084015b60405180910390fd5b6000818152600160205260409020600581015460ff1661056c5760405162461bcd60e51b815260206004820152600b60248201526a139bdd081cdd185c9d195960aa1b6044820152606401610513565b8060040154421015806105835750600881015460ff165b6105bb5760405162461bcd60e51b8152602060048201526009602482015268139bdd08195b99195960ba1b6044820152606401610513565b6005810154610100900460ff16156106055760405162461bcd60e51b815260206004820152600d60248201526c105b1c9958591e48195b991959609a1b6044820152606401610513565b60058101805461ff00191661010017908190556201000090046001600160a01b03161580159061063d57508060070154816006015410155b801561064e5750600881015460ff16155b1561077057805460058201546001830154604051632142170760e11b81526001600160a01b03938416936342842e0e936106989330936201000090920490921691906004016116ff565b600060405180830381600087803b1580156106b257600080fd5b505af11580156106c6573d6000803e3d6000fd5b50505050600281015460068201546040516000926001600160a01b031691908381818185875af1925050503d806000811461071d576040519150601f19603f3d011682016040523d82523d6000602084013e610722565b606091505b505090508061076a5760405162461bcd60e51b81526020600482015260146024820152732330b4b632b2103a379039b2b7321022ba3432b960611b6044820152606401610513565b50610841565b805460028201546001830154604051632142170760e11b81526001600160a01b03938416936342842e0e936107ae93309392909116916004016116ff565b600060405180830381600087803b1580156107c857600080fd5b505af11580156107dc573d6000803e3d6000fd5b50505060058201546201000090046001600160a01b0316159050610841576006810154600083815260026020908152604080832060058601546201000090046001600160a01b031684529091528120805490919061083b908490611723565b90915550505b6005810154600682015460408051620100009093046001600160a01b03168352602083019190915283917fad71bc980e1f9155e488acf543cc5276beae185d612505ea3eaff929e4fe37f0910160405180910390a25050565b600081815260016020526040812081548311156108f95760405162461bcd60e51b815260206004820152601760248201527f41756374696f6e20646f6573206e6f742065786973742e0000000000000000006044820152606401610513565b80600401544210158061091557506005810154610100900460ff165b806109245750600881015460ff165b9392505050565b6000818152600260209081526040808320338452909152902054806109895760405162461bcd60e51b81526020600482015260146024820152734e6f2066756e647320746f20776974686472617760601b6044820152606401610513565b600082815260026020908152604080832033808552925280832083905551909183156108fc02918491818181858888f193505050501580156109cf573d6000803e3d6000fd5b50604051818152339083907f9da6493a92039daf47d1f2d7a782299c5994c6323eb1e972f69c432089ec52bf906020015b60405180910390a35050565b600081815260016020526040902060028101546001600160a01b03163314610a635760405162461bcd60e51b815260206004820152600a6024820152692737ba1039b2b63632b960b11b6044820152606401610513565b6005810154610100900460ff1615610aad5760405162461bcd60e51b815260206004820152600d60248201526c105b1c9958591e48195b991959609a1b6044820152606401610513565b600881015460ff1615610af65760405162461bcd60e51b8152602060048201526011602482015270105b1c9958591e4818d85b98d95b1b1959607a1b6044820152606401610513565b60088101805460ff1916600117905560058101805461ff00191661010017908190556201000090046001600160a01b031615610b73576006810154600083815260026020908152604080832060058601546201000090046001600160a01b0316845290915281208054909190610b6d908490611723565b90915550505b805460028201546001830154604051632142170760e11b81526001600160a01b03938416936342842e0e93610bb193309392909116916004016116ff565b600060405180830381600087803b158015610bcb57600080fd5b505af1158015610bdf573d6000803e3d6000fd5b50506040518492507f8bf30e7ff26833413be5f69e1d373744864d600b664204b4a2f9844a8eedb9ed9150600090a25050565b6001600160a01b0381166000908152600360209081526040808320805482518185028101850190935280835260609493830182828015610c7157602002820191906000526020600020905b815481526020019060010190808311610c5d575b505050505090506000815167ffffffffffffffff811115610c9457610c94611736565b604051908082528060200260200182016040528015610ccd57816020015b610cba61147b565b815260200190600190039081610cb25790505b50905060005b8251811015610dce5760016000848381518110610cf257610cf261174c565b602090810291909101810151825281810192909252604090810160002081516101608101835281546001600160a01b03908116825260018301549482019490945260028201548416928101929092526003810154606083015260048101546080830152600581015460ff808216151560a08501526101008083048216151560c08601526201000090920490941660e084015260068201549083015260078101546101208301526008015490911615156101408201528251839083908110610dbb57610dbb61174c565b6020908102919091010152600101610cd3565b509392505050565b6000818152600160205260409020600581015460ff16610e265760405162461bcd60e51b815260206004820152600b60248201526a139bdd081cdd185c9d195960aa1b6044820152606401610513565b80600401544210610e615760405162461bcd60e51b8152602060048201526005602482015264115b99195960da1b6044820152606401610513565b600881015460ff1615610ea25760405162461bcd60e51b815260206004820152600960248201526810d85b98d95b1b195960ba1b6044820152606401610513565b80600301543410158015610eb95750806006015434115b610ef35760405162461bcd60e51b815260206004820152600b60248201526a42696420746f6f206c6f7760a81b6044820152606401610513565b60058101546201000090046001600160a01b031615610f53576006810154600083815260026020908152604080832060058601546201000090046001600160a01b0316845290915281208054909190610f4d908490611723565b90915550505b60058101805462010000600160b01b0319163362010000810291909117909155346006830181905560405190815283907fdcd726e11f8b5e160f00290f0fe3a1abb547474e53a8e7a8f49a85e7b1ca319990602001610a00565b60036020528160005260406000208181548110610fc957600080fd5b90600052602060002001600091509150505481565b610fe661147b565b5060009081526001602081815260409283902083516101608101855281546001600160a01b039081168252938201549281019290925260028101548316938201939093526003830154606082015260048301546080820152600583015460ff808216151560a08401526101008083048216151560c08501526201000090920490931660e0830152600684015490820152600783015461012082015260089092015416151561014082015290565b600082116110ef5760405162461bcd60e51b8152602060048201526024808201527f4475726174696f6e2073686f756c642062652067726561746572207468616e206044820152637a65726f60e01b6064820152608401610513565b60015b60005481116111b7576000818152600160205260409020546001600160a01b03878116911614801561113557506000818152600160208190526040909120015485145b80156111585750600081815260016020526040902060050154610100900460ff16155b156111a55760405162461bcd60e51b815260206004820152601e60248201527f41756374696f6e20666f72204e465420616c72656164792065786973747300006044820152606401610513565b806111af816116e6565b9150506110f2565b5060006001600080600081546111cc906116e6565b91829055508152602081019190915260400160002080546001600160a01b0388166001600160a01b031991821617825560018201879055600282018054909116331790556003810185905590506112238342611723565b600480830191909155600782018390556005820180546001600160b01b03191660019081179091556000600684015560088301805460ff191690558254908301546040516323b872dd60e01b81526001600160a01b0392909216926323b872dd926112929233923092016116ff565b600060405180830381600087803b1580156112ac57600080fd5b505af11580156112c0573d6000803e3d6000fd5b50503360008181526003602090815260408083208354815460018101835591855283852090910155915482518981529182018890529294509192507ff567c3e329fb0cd85ed1a730a34f259d4b2c47864d67fff0112027c6dc6ee0de910160405180910390a3505050505050565b60606000805467ffffffffffffffff81111561134c5761134c611736565b60405190808252806020026020018201604052801561138557816020015b61137261147b565b81526020019060019003908161136a5790505b50905060015b60005481116114755760008181526001602081815260409283902083516101608101855281546001600160a01b039081168252828501549382019390935260028201548316948101949094526003810154606085015260048101546080850152600581015460ff808216151560a08701526101008083048216151560c08801526201000090920490931660e086015260068201549085015260078101546101208501526008015416151561014083015283906114479084611762565b815181106114575761145761174c565b6020026020010181905250808061146d906116e6565b91505061138b565b50919050565b6040805161016081018252600080825260208201819052918101829052606081018290526080810182905260a0810182905260c0810182905260e081018290526101008101829052610120810182905261014081019190915290565b6001600160a01b03811681146114ec57600080fd5b50565b6000806040838503121561150257600080fd5b823591506020830135611514816114d7565b809150509250929050565b60006020828403121561153157600080fd5b5035919050565b60006020828403121561154a57600080fd5b8135610924816114d7565b80516001600160a01b0316825260208101516020830152604081015161158660408401826001600160a01b03169052565b50606081015160608301526080810151608083015260a08101516115ae60a084018215159052565b5060c08101516115c260c084018215159052565b5060e08101516115dd60e08401826001600160a01b03169052565b5061010081810151908301526101208082015190830152610140908101511515910152565b6020808252825182820181905260009190848201906040850190845b8181101561164557611631838551611555565b92840192610160929092019160010161161e565b50909695505050505050565b6000806040838503121561166457600080fd5b823561166f816114d7565b946020939093013593505050565b61016081016104358284611555565b600080600080600060a086880312156116a457600080fd5b85356116af816114d7565b97602087013597506040870135966060810135965060800135945092505050565b634e487b7160e01b600052601160045260246000fd5b6000600182016116f8576116f86116d0565b5060010190565b6001600160a01b039384168152919092166020820152604081019190915260600190565b80820180821115610435576104356116d0565b634e487b7160e01b600052604160045260246000fd5b634e487b7160e01b600052603260045260246000fd5b81810381811115610435576104356116d056fea26469706673582212204f9acdc1130b05e4230f8585b8f8f92b56eb890de352863b52e4e78a4bb4931b64736f6c63430008180033","linkReferences":{}},"methodIdentifiers":{"auctionCount()":"2ad71573","auction_info(uint256)":"70b88166","auctions(uint256)":"571a26a0","bid(uint256)":"454a2ab3","bids(uint256,address)":"3f1ffcec","cancel(uint256)":"40e58ee5","createAndStartAuction(address,uint256,uint256,uint256,uint256)":"85e75403","deposit_balance(uint256,address)":"08f00e12","end(uint256)":"0ad24528","getAllAuctions()":"cbd2bdfd","getAuctionsByOwner(address)":"41177855","getNftBuyer(uint256)":"0a09538c","isAuctionOver(uint256)":"2c104a92","ownerToAuctions(address,uint256)":"4bf0475c","total_auctions()":"d691a274","withdraw(uint256)":"2e1a7d4d"},"id":35}